:020000040800F2
:100000000040002015210008752000087720000816
:1000100000000000000000000000000000000000E0
:10002000000000000000000000000000792000082F
:1000300000000000000000007B2000087D20000878
:100040006521000865210008652100086521000878
:100050006521000865210008652100086521000868
:100060006521000865210008652100086521000858
:100070006521000865210008652100086521000848
:100080006521000865210008852000086521000819
:100090006521000865210008652100086521000828
:1000A00065210008652100086521000895200008E9
:1000B00065210008A52000086521000865210008C9
:1000C00010B5064C2378002B07D1054B002B02D02E
:1000D000044800E000BF0123237010BD040000208D
:1000E0000000000080220008044B10B5002B03D054
:1000F0000349044800E000BF10BDC04600000000F6
:10010000080000208022000802B471464908490016
:10011000095649008E4402BC7047C04602B471467D
:1001200049084900095C49008E4402BC7047C0463A
:10013000002243088B4274D303098B425FD3030A26
:100140008B4244D3030B8B4228D3030C8B420DD339
:10015000FF22090212BA030C8B4202D312120902C7
:1001600065D0030B8B4219D300E0090AC30B8B4205
:1001700001D3CB03C01A5241830B8B4201D38B03B3
:10018000C01A5241430B8B4201D34B03C01A524158
:10019000030B8B4201D30B03C01A5241C30A8B429B
:1001A00001D3CB02C01A5241830A8B4201D38B0286
:1001B000C01A5241430A8B4201D34B02C01A52412A
:1001C000030A8B4201D30B02C01A5241CDD2C3099C
:1001D0008B4201D3CB01C01A524183098B4201D318
:1001E0008B01C01A524143098B4201D34B01C01A03
:1001F000524103098B4201D30B01C01A5241C3087B
:100200008B4201D3CB00C01A524183088B4201D3E9
:100210008B00C01A524143088B4201D34B00C01AD5
:100220005241411A00D20146524110467047FFE741
:1002300001B5002000F006F802BDC0460029F7D045
:1002400076E770477047C04610B5040000F032FFF3
:10025000FA218900FFF76CFF00F060F8012000220E
:100260002100404200F020F8002010BD1023064A73
:1002700010B5116800200B431360FFF7E5FF01F094
:1002800029FE002010BDC04600200240024A13682B
:10029000013313607047C04624000020014B1868EA
:1002A0007047C0462400002070B58901002814DA88
:1002B0000F23C0B20340083B114A9B089B009B18C8
:1002C000032210409040FC321500114085408140CF
:1002D000DC69AC432143D96170BD03258308284004
:1002E000A840FC352E00074A9B009B18C022864080
:1002F0002940814092009C58B44321439950EBE738
:1003000000ED00E000E100E01F2318401E3B8340A9
:10031000014A13607047C04600E100E0094A431EED
:10032000012093420DD8C021074A08485360036A50
:1003300009061B021B0A0B4303620020072390607F
:1003400013607047FFFFFF0010E000E000ED00E0E9
:1003500070B5841CE37F022B04D004238363033B2A
:10036000180070BD0E210368056C1A688A431A6074
:1003700001221968914319601100A940C36B5960AB
:10038000E27700248318426BDC771300A242E7D0A7
:1003900090472300E4E70000F0B5564A0B68821846
:1003A000541EA24189B00393002304320592039A9C
:1003B000DA4001D109B0F0BD01229A40944664466A
:1003C000039A2240029200D192E04A6801921022E0
:1003D000019E9643022E0DD107240F271C40A40036
:1003E000A740DA0892008218156ABD430F69A7403A
:1003F0003D431562032214005D00AC40E4430768EE
:10040000013E27400497019F3A40AA40049F3A4387
:100410000260012E0ED8CA688668AA402640324380
:100420008260624646689643019AD206D20F9A408D
:1004300032434260C26814408A68AA401443019A59
:10044000C460D20054D501262B4A1D009469344360
:10045000946192699C0832400792079A274AA40047
:10046000A418A268944603221540AD000C32AA409D
:10047000674697439022D2059446002260450DD0EE
:100480001F4A94463200604508D01E4E9218B04272
:1004900004D01D4E0132B04200D0059AAA403A4322
:1004A000A2601A4A029C1668029D019FE4433543EC
:1004B000FF0301D43500254015605668029D019F59
:1004C0003543BF0301D43500254055609668029D31
:1004D000019F3543FF0201D4350025409560D56862
:1004E000029E019F2E43BF0201D425402E00D660FC
:1004F00001335CE700F0FFB700100240000001404C
:100500000004004800080048000C004800040140B6
:10051000002A01D0816170478162FCE7436959403C
:100520004161704703689A69920701D500229A6277
:1005300001229969114202D199690A439A6170476F
:1005400030B504680648656889052840039D890D13
:100550002B43194312040A430243626030BDC04674
:10056000009800FCF8B504000E0017001D0022687A
:10057000936933409B1B59424B41BB4201D0002041
:100580000EE06B1CF4D0002D0BD123002022413350
:100590001A7022000023032042324034137023706B
:1005A000F8BDFFF77BFE069BC01A8542DFD2ECE761
:1005B000F8B503680400986910230E00170018406E
:1005C0002025002815D1F8BD721C13D0002E0BD1A8
:1005D0002300202241331A7022000023423240348B
:1005E000137003202370EEE7FFF758FEC01B86420E
:1005F000EED323689A692A42E6D010222000DA61FD
:10060000DD61FFF78FFF22680849536801200B4026
:100610005360042363642300220041331D700023D0
:100620004232403413702370CDE7C04600E800FE2C
:10063000F8B504000D001600022723689B693B42B1
:1006400001D0002018E0320029002000FFF7B0FFA1
:10065000002818D16B1CF0D0002D0ED12022636C25
:10066000032013436364230041331A7022000023E4
:100670004232403413702370F8BDFFF70FFE801B29
:100680008542DAD2EAE70120F6E7F8B504000D006A
:100690001600202723689B693B4201D0002016E00A
:1006A000320029002000FFF783FF002816D1002D1B
:1006B0000ED12022636C0320134363642300413373
:1006C0001A70220000234232403413702370F8BDA8
:1006D000FFF7E4FD801B8542DCD2EAE70120F6E764
:1006E00070B504000120002C3FD0250041352B7847
:1006F000DBB2002B05D1220040321370200001F044
:1007000001FC242301212B702368E0681A68A66885
:100710008A431A6061681A4A0A401A619968194A3C
:1007200011409960012821D180210902314399604B
:100730005868154901435960D96800200A40DA60B9
:10074000616922690A43A16909020A43DA60216AE0
:10075000E2690A431A60012219680A431A602023D9
:1007600060642B7020634234207070BD84210902C4
:10077000314399600228DBD1802109015960D7E714
:10078000FFFFFFF0FF7FFFFF00800002F0B50500D4
:1007900087B003910492059341352B780400022021
:1007A000202B57D1230040331A78012A52D001263A
:1007B0001E70FFF773FD802107000090192332009F
:1007C00009022000FFF7CEFE002842D121232B7022
:1007D000113BAD192B70049B606463626B469B8A6E
:1007E000606363858023628D9B01FF2A21D9FF22EC
:1007F0002285009380235B0403992000FFF7A0FE6D
:10080000FF26638D3A000C992000002B19D1FFF7C9
:100810003CFF002819D120212368274ED9615A684E
:1008200032405A60230040344133197028702070E0
:1008300010E0628D92B2228500938023D2B29B0495
:10084000DAE7FFF7F5FE002806D0636C0120042BE1
:1008500000D0032007B0F0BD636A2268591C6162B2
:100860001B789362638D228D013B013A9BB292B259
:1008700063852285002AC4D1638D002BC1D00097E7
:100880000C9B80212000FFF76DFE0028E1D1638DD5
:10089000FF2B09D98023FF2226855B040090039952
:1008A0002000FFF74DFEACE78023628D9B0492B2DF
:1008B0002285D2B20090F2E700E800FEF0B589B0E0
:1008C00005911D00010000230492079341310B782C
:1008D0000400DBB20220202B55D1226896698022C9
:1008E000120232404FD1260040363778012F4AD0CD
:1008F000013830701E00233008706264059BE16887
:100900009B0522689B0D01291AD136490B43536080
:10091000FFF7C4FC03902700236841379A693242ED
:1009200018D010279A693A402FD1039B20210093B9
:1009300020002B00FFF716FE00281CD0032022E029
:10094000A0218901E2E7FFF7A9FC039BC01A8542B9
:10095000E1D20AE010219A690A42E2D13A78A02A4B
:10096000DFD06A1CDAD0002DEDD120233B700023AC
:1009700040342370E2E720232268D3612200403410
:1009800041321370207009B0F0BD039B0022009328
:1009900031002B002000FFF7E5FD021ECED12368B9
:1009A000DF61DE610799481C0790049881420FD1EE
:1009B00080215868C90101435960039B31000093AD
:1009C00020002B00FFF7CEFD0028B7D12368DE61A1
:1009D000079B049A9A4200D990E7230020224133D2
:1009E0001A70C4E700200002F0B5040041342278F8
:1009F0000300D2B20220202A18D11D0040352E78E3
:100A0000012E13D01B68223020701E6823388643C5
:100A10001E601E68064F3E401E601E68314319600E
:100A2000196808431860002022702870F0BDC04685
:100A3000FFEFFFFFF0B5050041352A780300D2B281
:100A40000220202A17D11C0040342678012E12D013
:100A50001B68223028701E68233886431E601E687B
:100A6000054F09023E403143196019680843186078
:100A700000202A702070F0BDFFF0FFFFF0B5036882
:100A800085B00500DB0733D42B689B0700D58AE0CF
:100A90002B681B0700D5CAE02B685B0700D5EDE08B
:100AA0002B68DB061AD56A69BC4C0423012A00D0E6
:100AB00059E1616B02260B436363636B1A43626304
:100AC000FFF7ECFB0700636B334200D144E1F821F0
:100AD000626BAB698A43DB00134363632B689B063D
:100AE00000D567E1696A002900D0A4E1002018E080
:100AF0000C21AA4C62680A40042A0BD063680B40A0
:100B0000082B10D1C0226368520213408022520287
:100B1000934208D123689B03B6D56B68002BB3D1F1
:100B2000012005B0F0BD6B68012B13D18023226832
:100B30005B0213432360FFF7B1FB80260700B60278
:100B400023683342A0D1FFF7A9FBC01B6428F7D963
:100B50000320E6E7002B16D12368914A8026134034
:100B6000236023688F4AB60213402360FFF796FB89
:100B700007002368334200D186E7FFF78FFBC01BD5
:100B80006428F6D9E4E7052B05D180232268DB022F
:100B900013432360CAE72368814A13402360236814
:100BA000804A1340C6E70C227C4C636813420BD08A
:100BB00063681340082B15D1C022636852021340AA
:100BC0008022120293420DD123689B0702D5EB6865
:100BD000012BA5D1F82122682B698A43DB0013433E
:100BE000236055E7EA680123002A0FD02268022615
:100BF00013432360FFF752FB070023683342E9D118
:100C0000FFF74CFBC01B0228F7D9A1E72268022698
:100C10009A432260FFF742FB07002368334200D16A
:100C200036E7FFF73BFBC01B0228F6D990E7EA69DD
:100C300001235A4C002A10D0626A022613436362D1
:100C4000FFF72CFB0700636A334200D024E7FFF76D
:100C500025FBC01B0228F6D97AE7626A02269A436E
:100C60006262FFF71BFB0700636A334200D113E7A0
:100C7000FFF714FBC01B0228F6D969E78022002188
:100C8000464C5205E3690091134208D1E3691343CE
:100C9000E361E36913400393039B012300938027DF
:100CA000414E7F0033683B4206D0AB68012B13D125
:100CB000226A1343236230E033683B433360FFF71B
:100CC000EDFA019033683B42EFD1FFF7E7FA019B61
:100CD000C01A6428F6D93BE70122002B14D1236AFD
:100CE000022793432362236A033293432362FFF76D
:100CF000D5FA0600236A3B4225D0FFF7CFFA2B4BEB
:100D0000801B9842F6D923E7052B0BD1216A013BC2
:100D10000B432362236A1A432262FFF7BFFA0227BA
:100D200006000DE0236A934304222362236A93435F
:100D3000C0E7FFF7B3FA1D4B801B984200D907E7C5
:100D4000236A3B42F5D0009B012B00D0A8E6E36963
:100D5000174A1340E361A3E6FFF7A0FAC01B02287D
:100D600000D8B0E6F4E6053203D1626B9A436263C1
:100D7000ADE6626B0226134301226363636B934308
:100D80006363FFF78BFA0700636B334200D1A5E67C
:100D9000FFF784FAC01B0228F6D9D9E600100240FA
:100DA000FFFFFEFFFFFFFBFF007000408813000005
:100DB000FFFFFFEF0C21464C62680A408A4209D0CF
:100DC00063680B40082B0ED1C022636852021340A7
:100DD000934208D1636BDB0300D483E62B6A012BBB
:100DE00000D09DE67EE62B6A002B11D08026636B37
:100DF000760233436363FFF751FA0700636B3342B4
:100E000000D06FE6FFF74AFAC01B0228F6D99FE62A
:100E1000636B304A802613406363FFF73FFA070095
:100E20007602636B334200D15CE6FFF737FAC01BF2
:100E30000228F6D98CE60C22254C63681340082B57
:100E400000D16DE62368244A1340236002292FD184
:100E5000FFF724FA80260700B6042368334221D125
:100E60000F22E36A93432A6B1343E362A96AEB6A96
:100E700062680B43194980250A401343636080234D
:100E800022685B0413432360FFF708FA0600AD04F1
:100E900023682B4200D029E6FFF700FA801B0228C6
:100EA000F6D955E6FFF7FAF9C01B0228D5D94FE667
:100EB000FFF7F4F980250600AD0423682B4200D12A
:100EC00014E6FFF7EBF9801B0228F6D940E6C0468E
:100ED00000100240FFFFFEFFFFFFFFFEFF7FC2FF8B
:100EE00070B5194C88B010222100684601F07CF9D9
:100EF000210004AD10221031280001F075F90C22F8
:100F0000124E73681A40082A04D00C2A1AD11048CD
:100F100008B070BD0F206A46990C0140545CF26A1B
:100F20000240A95CC022802052021340400283424A
:100F300001D1084802E09342FBD10548FFF7F8F8D9
:100F40006043E5E70348E3E7982200080010024009
:100F5000006CDC0200127A00F7B501224F4C06004B
:100F60002368019113408B421FD33268930728D422
:100F7000D3072ED40123226801991A40914200D24E
:100F80007EE03368464C5B0700D580E0FFF7A8FFA2
:100F90006368444A1B061B0FD35CD840424B186061
:100FA0000020FFF751F900200AE0236801999343DC
:100FB0000B43236023681340019A9A42D5D0012045
:100FC000FEBDF02036494B688343B06803434B6055
:100FD000CEE77268324D012A1AD12B689B03EED5F9
:100FE00003216B688B4313436B60FFF757F97368FA
:100FF0000700012B1CD10C226B681340042BB9D0C5
:10100000FFF74CF9294BC01B9842F4D90320D7E7CE
:10101000022A03D12B689B01E2D4D0E7032A03D133
:101020006B6BDB03DCD4CAE72B689B07D8D4C6E71D
:10103000022B0BD10C226B681340082B9AD0FFF7C0
:101040002DF91A4BC01B9842F4D9DFE7032B11D0BE
:101050000C226B68134200D18CE7FFF71FF9134B8A
:10106000C01B9842F4D9D1E7FFF718F90F4BC01B0A
:101070009842CBD80C226B6813409342F4D179E7A5
:1010800022689A43226022681A4298D179E76368FD
:10109000074A1340F2681343636077E70020024079
:1010A00000100240BC22000800000020881300004D
:1010B000FFF8FFFF014B18687047C0460000002092
:1010C000044B054A5B685B055B0FD35C034A106801
:1010D000D840704700100240CC22000800000020D9
:1010E000F0B5036885B00500DB0328D58022002118
:1010F000444C5205E3690091134208D1E36913435C
:10110000E361E36913400393039B0123009380276A
:101110003D4E7F0033683B4241D0C022236A92009B
:1011200013403A4E4DD1236A1E406B681E43009B0C
:101130002662012B03D1E369354A1340E3612B6832
:10114000DA0706D503202F490A6B8243A8680243B9
:101150000A639A0706D52B492E480A6B0240E868B5
:1011600002430A639A0606D5102026490A6B824379
:10117000286902430A639A0306D5802021490A6B35
:101180008243A86902430A6300205B0517D540210A
:101190001C4A136B8B4369690B4313630FE033687D
:1011A0003B433360FFF77AF8019033683B42B4D198
:1011B000FFF774F8019BC01A6428F6D9032005B024
:1011C000F0BD69680A409342ADD08023226A206A4C
:1011D00011005B0203432362236A0F48314003403E
:1011E00023622162D3079ED5FFF758F80700022239
:1011F000236A134297D1FFF751F8084BC01B98425E
:10120000F5D9DBE70010024000700040FFFCFFFF53
:10121000FFFFFFEFFFFFFCFFFFFFFEFF8813000053
:1012200001220368D96800201143D96019680A4374
:101230001A60704770477047704770470222036812
:1012400010B51969040011420ED0D96811420BD0B3
:10125000053A1A619B69043202779B0700D179E055
:10126000FFF7E9FF0023237704222368196911425D
:1012700010D0D96811420DD0093A1A61073222778D
:101280009A69C0239B0020001A4269D0FFF7D3FF60
:101290000023237708222368196911420ED0D968E8
:1012A00011420BD0113A1A61DB690D32227720000E
:1012B0009B075BD0FFF7BFFF002323771022236833
:1012C0001969114210D0D96811420DD0213A1A6122
:1012D00019322277DA69C0239B0020001A424BD0D2
:1012E000FFF7A9FF00232377012223681969114220
:1012F00007D0D968114204D0033A1A61200000F0E7
:101300009FFC802223681969114208D0D9681142D4
:1013100005D0023AFF3A1A61200000F0C0F84022DE
:1013200023681969114207D0D968114204D0813A63
:101330001A612000FFF781FF2022236819691142FA
:1013400007D0D968114204D0413A1A61200000F058
:10135000A5F810BDFFF76EFF2000FFF76DFF81E7D6
:10136000FFF768FF2000FFF767FF91E7FFF762FFD5
:101370002000FFF761FF9FE7FFF75CFF2000FFF70A
:101380005BFFAFE7204A10B50368904206D0802487
:10139000E405A04202D01D4CA0420CD17024A3430E
:1013A0004C682343904212D08024E405A0420ED022
:1013B000164CA0420BD0164CA04208D0154CA042AF
:1013C00005D0154CA04202D0144CA04203D1144CBD
:1013D0002340CC6823438024A3434C692343036008
:1013E0008B68C3620B688362904208D0094B9842B5
:1013F00005D0094B984202D0084B984201D10B69A5
:1014000003630123436110BD002C01400004004030
:1014100000200040004001400044014000480140DD
:10142000FFFCFFFF70B504000120002C14D0250044
:101430003D352B78DBB2002B05D122003C321370F6
:10144000200000F095FD022320682B70211DFFF77E
:1014500099FF012300202B7070BD30B504003C348F
:10146000227803000220012A17D01D001B683D3599
:1014700028705A686E3082435A605A680868496812
:10148000024380205A609A6882439A609A680020DA
:101490000A439A6001232B70207030BD704770475B
:1014A000036806491A686A300A401A609A6823314C
:1014B000FF318A439A60202303707047DFFEFFFFED
:1014C000F0B506006A36347803000220202C35D1AE
:1014D0000138002932D0002A30D080259C686D0167
:1014E000AC4204D11D69002D01D1014226D11D005D
:1014F00068352F780220012F20D0013828705965D7
:10150000190058310A804A8080225201944218D131
:101510001A69002A13D113491A005C321180002085
:101520002222D8661B6832709968213A0A432870D3
:101530009A609022196852000A431A60F0BDFF2198
:10154000EAE7002C04D11A69002AF8D07F21E3E7EA
:10155000802252059442E2D11A69002AF6D03F2136
:10156000DAE7C046FF01000070477047406A002379
:10157000020010B55A321380083A1380FFF7F5FFC6
:1015800010BD000070B504000568C2698368006979
:1015900029680343606903434A48134301400B43EE
:1015A0002B606B684849206A0B40E1680B436B6015
:1015B000A369A9680343454801400B438021AB6000
:1015C000434B09029D4210D10320424B1B6B034049
:1015D0004148C05C8A4246D0082819D8FEF79EFDD3
:1015E0004F1854185E18181861003C4B9D422CD1BE
:1015F000C0208026374B80021B6B76020340B3422B
:1016000054D007D8002B26D080231B029A4233D017
:10161000012019E08026B602B3424CD08342F3D1B8
:101620008A4231D1636858082D4BC0186168FEF7B3
:101630007FFD83B200200F22190091430A001B078F
:1016400021685B0F1343CB6070BD264B9D4202D0D7
:10165000254B9D42D8D18A4211D1FFF731FD6368F5
:1016600040005B08E1E7082806D8FEF74DFDF605C7
:10167000DB0521050505260001200023DBE7FFF738
:101680001FFD61684B0802E06168184B4808C018EC
:10169000FEF74EFD80B2E8600020D5E7FFF720FCA2
:1016A000EFE7802361681B024808F0E78A42F5D122
:1016B000FFF716FCD3E78A42F3D16368580880230A
:1016C0005B02B2E7F369FFEFFFCFFFFFFFF4FFFF1D
:1016D0000038014000100240B822000800440040D9
:1016E0000024F40000480040004C004000127A0042
:1016F000436A30B5DA0706D50168284C4A682240AB
:10170000846A22434A609A0706D50168244C4A68D5
:101710002240C46A22434A605A0706D50168214C18
:101720004A682240046B22434A601A0706D50168C2
:101730001D4C4A682240446B22434A60DA0606D5B3
:1017400001681A4C8A682240846B22438A609A0698
:1017500006D50168164C8A682240C46B22438A6011
:101760005A0610D50168134D4A68046C2A4022437A
:101770004A6080225203944205D14A680E4C2240AE
:10178000446C22434A601B0606D502680B49536825
:101790000B40816C0B43536030BDC046FFFFFDFF23
:1017A000FFFFFEFFFFFFFBFFFF7FFFFFFFEFFFFFDE
:1017B000FFDFFFFFFFFFEFFFFFFF9FFFFFFFF7FFD1
:1017C000F8B504000E0015001F002268D3693340ED
:1017D0009B1B59424B41AB4201D0002018E0069BB5
:1017E0000133F3D0069B002B13D123680C491A68F0
:1017F00003200A401A609A68A331FF318A439A6035
:101800002200202369321370537000236834237040
:10181000F8BDFEF743FD069BC01B8342D5D2E4E72B
:101820005FFEFFFF002337B50400C366FEF736FDF9
:101830002368184A050093420BD0174A934208D0F8
:101840002200202300206932683413705370207006
:101850003EBD1B681B070FD423681B685B07EFD5D1
:1018600080210E4B00220093C9032B002000FFF7BC
:10187000A7FF00280BD1E3E78021084B002200934B
:1018800089032B002000FFF79BFF0028E4D00320F2
:10189000DEE7C0460038014000440040FFFFFF0182
:1018A00070B5041E01D1012070BD050069352B788B
:1018B000DBB2002B04D102006832137000F074FB1D
:1018C0002423012122682B70136820008B431360AE
:1018D000FFF758FE0128E6D0636A002B02D02000F3
:1018E000FFF706FF236808495A6820000A402A21AA
:1018F0005A609A688A439A60012219680A431A60FA
:10190000FFF790FFD0E7C046FFB7FFFF030030B5F9
:1019100069331B7802000220212B0FD114005234AE
:10192000238811689BB2002B09D10A687E3082435C
:101930000A604022086802430A60002030BD80200F
:1019400095684001D36C85420DD1106900280AD1F9
:1019500018880233C005C00D0885D3642388013B75
:101960009BB22380E9E7581CD0641B780B85F5E710
:101970004021026810B513688B43136003002022D6
:1019800069331A70FFF7F0FD002010BD020070B53A
:101990006A321178036822292DD1010080245C313C
:1019A0000D88998C640129408568436DA5421ED13C
:1019B0000469002C1BD11980023343650100002407
:1019C0005A310B88013B9BB20B80A3420DD10368B7
:1019D0000C4D19682940196099682335FF35A943D2
:1019E00099602023137000F0ADF8200070BD5C1CDE
:1019F00044651970E2E70822996902240A439A6152
:101A0000F3E7C046DFFEFFFF0F210268F8B5D36998
:101A100004001940106808D120252B4205D0284227
:101A200003D02000FFF7B2FFF8BD9668002961D00F
:101A3000012135000D4003D190277F00384259D055
:101A40000B4205D0C60503D51162E66E3143E1664F
:101A500002210B4206D0002D04D01162E66E491817
:101A60003143E16604210B4206D0002D04D01162FF
:101A7000E66E02393143E166190708D5810601D4C3
:101A8000002D04D008211162E26E1143E166E26E7E
:101A9000002AC9D02022134204D0104202D02000D4
:101AA000FFF774FFE36E20001B0704D423689D68D2
:101AB00040231D401AD0FFF7F3FC402123689A68A9
:101AC0000A420FD09A68606E8A439A60002809D053
:101AD0001A4B4363FEF73CFC0028A5D0606E436BB5
:101AE0009847A1E72000FFF740FD9DE7FFF73DFD88
:101AF000E56699E7802149030B420BD0750209D5B1
:101B0000116222002023693213702000537000F00C
:101B100017F889E78022134205D0104203D0200035
:101B2000FFF7F4FE80E74022134200D17CE7104229
:101B300000D179E72000FFF71BFF75E76D1500085E
:101B40007047000070B503680F4D0400AB4208D128
:101B50000E4B1B78002B04D090202021C005FEF7EF
:101B6000DDFC2368AB4204D1082208490848FFF78E
:101B7000A7FC084B22689A4204D10822064907486C
:101B8000FFF79EFC70BDC0460038014020000020D9
:101B900074000020004C004021000020EC000020D8
:101BA0001FB50F23010099430B3B1C0003AA517082
:101BB0000C4319000001C0B2014391706421D07040
:101BC0001470034800911639FEF7E0FD1FBDC046B2
:101BD000280000201FB50F2304009C430A3B190076
:101BE0000001C0B203AA2143034311709370012185
:101BF0000923214318435B335170D0704E21009369
:101C00000248603BFEF7C2FD1FBDC0462800002011
:101C100010B50220FFF7C4FF2820FFF7C1FF0C20FA
:101C2000FFF7BEFF8020FFF7BBFF10BD10B504001B
:101C30002078002800D110BD0134FFF7CBFFF7E773
:101C400010B50B4B0B4C18780A22210000F0C8FA93
:101C50000120FFF7A5FF8020FFF7A2FF1420FFF768
:101C60009FFF1420FFF79CFF2000FFF7DFFF10BD50
:101C700020000020E400002030B5102499B0342268
:101C800000210BA800F0B9FA22000021684600F0FC
:101C9000B4FA1C22002104A800F0AFFA03230B932E
:101CA00080235B021593802301250F945B030E3C78
:101CB0000BA8149416930C950E95FEF7DFFE0723E0
:101CC0000194002429006846009302940394FFF7CE
:101CD00043F9212304A8049306940894FFF700FA1B
:101CE00019B030BDF0B58BB0FEF7C0FAFFF7C4FFF6
:101CF0001422002105A800F080FA8020654B000323
:101D000059690024014359615A6901260240802023
:101D10000192019A5969C003014359615A6902400D
:101D200080200292029A5969800201435961802100
:101D30005A69C902024090200392039A5A69C00569
:101D40000A435A615B6900220B4004932021049BE3
:101D5000FEF7DEFB002230214F48FEF7D9FB80233F
:101D60009B0105934D4B05A94D4806930794FEF73B
:101D700013FB0C23902005930A3B069305A901331E
:101D8000C005089309960794FEF706FB90202023D0
:101D900005A9C0050593069607940894FEF7FCFA7A
:101DA000302305A93C480593069607940894FEF74E
:101DB000F3FA3C4D3C4B28002B603C4BEE606B60D3
:101DC000AC602C616C61AC61EC612C62FEF788FC4C
:101DD00021002800FEF708FE21002800FEF72AFE59
:101DE000334F344B38003B60E1235B027B600C23B4
:101DF000BC607B61FC603C61BC61FC613C627C62FC
:101E0000FFF74EFD2100082205A800F0F6F92A4A46
:101E10002A4B100013602A4B94605360D360946186
:101E2000FFF700FB05A9244805940694FFF715FB6E
:101E3000244E254B30003360E1235B0273600C239A
:101E4000B4607361F4603461B461F46134627462EB
:101E5000FFF726FDFFF7DCFE1748FFF7E1F9082240
:101E60001A493800FFF72CFB082219493000FFF708
:101E700027FB0A2302224E212800FEF71FFDA04265
:101E800007D110210448FEF749FB20210248FEF744
:101E900045FBFEE70010024000040048000021104E
:101EA0000008004828000020005400400E090020CF
:101EB00074000020003801405C0100200014004044
:101EC0000F270000EC000020004C00402000002004
:101ED0002100002001200A4B82B0996901439961D9
:101EE00080219A69490502400092009ADA690A4302
:101EF000DA61DB690B400193019B02B07047C04679
:101F00000010024010B5040088B01422002103A87C
:101F100000F073F9134B22689A4220D18021124CB1
:101F2000C902626911480A436261636903220B4076
:101F30000193019BC0239B000393122303A90493E5
:101F4000113B059306920793FEF726FA8021E2697A
:101F500089030A43E261E3690B400293029B08B0E4
:101F600010BDC0460054004000100240000400486C
:101F700007B50B4B02689A4210D12020094AD1695B
:101F80000143D161D3690022034001930E3811004F
:101F9000019BFEF789F91220FEF7B6F907BDC0468E
:101FA000001400400010024010B504008AB0142252
:101FB000002105A800F021F923682B4A93422AD179
:101FC00080202A4BC00199690143996180219A6957
:101FD000890202400192019A5A6990200A435A618B
:101FE0005B69C0050B400293029BC023DB00059395
:101FF000022306930133089305A9023B0993FEF7D8
:10200000CBF900221B201100FEF74EF91B20FEF732
:102010007BF90AB010BD164A9342FAD18020134BC7
:102020000003D9690143D9618021DA69890202403C
:102030000392039A5A6990200A435A615B6902220B
:102040000B400493049B032305A905930893C00543
:10205000013306920993FEF79FF900221D2011001B
:10206000FEF722F91D20D2E700380140001002409F
:10207000004C00407047FEE77047704710B5FEF710
:1020800005F910BD10B50248FFF7D8F810BDC046DD
:102090005C01002010B50248FFF7B6FC10BDC04639
:1020A0007400002010B50248FFF7AEFC10BDC0461A
:1020B000EC0000200121114B11481A680A431A60F4
:1020C0005A6802405A601A680E4802401A601A683C
:1020D0000D4802401A605A680C4802400F205A60AE
:1020E000DA6A8243DA621A6B094802401A635A6B51
:1020F0008A435A6300229A607047C046001002402B
:102100000CB8FF08FFFFF6FEFFFFFBFFFFFFC0FF5D
:102110002CFEFCFF0D4885460D480E490E4A002353
:1021200002E0D458C4500433C4188C42F9D30B4A8B
:102130000B4C002301E013600432A242FBD3FFF7F3
:10214000B9FF00F011F8FFF7CDFDFEE700400020D9
:1021500000000020040000200423000804000020E8
:102160009C010020FEE7000070B500260C4D0D4CD0
:10217000641BA410A64209D1002600F081F80A4D84
:102180000A4C641BA410A64205D170BDB300EB58E5
:1021900098470136EEE7B300EB5898470136F2E76F
:1021A000FC220008FC220008FC2200080023000892
:1021B000931E10B50C00222B04D900231C000B70B9
:1021C000200010BD0A2A09D1002807DA2D230B7040
:1021D00001214042611800F019F8F1E70021F9E708
:1021E00010B5FFF7E5FF10BD002310B59A4200D1EE
:1021F00010BDCC5CC4540133F8E70300821893424D
:1022000000D1704719700133F9E70000F0B51700ED
:102210008FB0252206000D0004A81849FFF7E4FF3F
:1022200004AABB1E00240392222B05D92C70250082
:1022300028000FB0F0BD019C631C0193EB180093C4
:102240003000013B39000293FDF7F8FF039B029A2F
:102250005B5C300013703900FDF76AFF061EEAD19F
:10226000009B18702B005A1B9442E1DD1A78295DFF
:1022700019702A550133013CF5E7C046D422000805
:10228000F8B5C046F8BC08BC9E467047F8B5C046D5
:08229000F8BC08BC9E46704733
:1022980002030405060708090A0B0C0D0E0F10109F
:1022A8000102030405060708090A0B0C0D0E0F109E
:1022B80000040802000000000000000001020304FE
:1022C8000607080900000000010203043031323318
:1022D8003435363738396162636465666768696AB8
:1022E8006B6C6D6E6F707172737475767778797ABE
:0422F80000000000E2
:0422FC00E9000008ED
:04230000C100000810
:0423040000127A0049
:0400000508002115B9
:00000001FF
