:020000040800F2
:1000000000400020A5170008351700083717000822
:1000100000000000000000000000000000000000E0
:100020000000000000000000000000003917000878
:1000300000000000000000003B1700083D1700080A
:10004000F5170008F5170008F5170008F517000860
:10005000F5170008F5170008F5170008F517000850
:10006000F5170008F5170008F5170008F517000840
:10007000F5170008F5170008F5170008F517000830
:10008000F5170008F5170008F5170008F517000820
:10009000F5170008F5170008F5170008F517000810
:1000A000F5170008F5170008F5170008F517000800
:1000B000F5170008F5170008F5170008F5170008F0
:1000C00010B5064C2378002B07D1054B002B02D02E
:1000D000044800E000BF0123237010BD040000208D
:1000E0000000000064180008044B10B5002B03D07A
:1000F0000349044800E000BF10BDC04600000000F6
:10010000080000206418000802B47146490849003C
:10011000095649008E4402BC7047C04602B471467D
:1001200049084900095C49008E4402BC7047C0463A
:10013000002243088B4274D303098B425FD3030A26
:100140008B4244D3030B8B4228D3030C8B420DD339
:10015000FF22090212BA030C8B4202D312120902C7
:1001600065D0030B8B4219D300E0090AC30B8B4205
:1001700001D3CB03C01A5241830B8B4201D38B03B3
:10018000C01A5241430B8B4201D34B03C01A524158
:10019000030B8B4201D30B03C01A5241C30A8B429B
:1001A00001D3CB02C01A5241830A8B4201D38B0286
:1001B000C01A5241430A8B4201D34B02C01A52412A
:1001C000030A8B4201D30B02C01A5241CDD2C3099C
:1001D0008B4201D3CB01C01A524183098B4201D318
:1001E0008B01C01A524143098B4201D34B01C01A03
:1001F000524103098B4201D30B01C01A5241C3087B
:100200008B4201D3CB00C01A524183088B4201D3E9
:100210008B00C01A524143088B4201D34B00C01AD5
:100220005241411A00D20146524110467047FFE741
:1002300001B5002000F006F802BDC0460029F7D045
:1002400076E770477047C04610B5040000F06AFEBC
:10025000FA218900FFF76CFF00F056F80120002218
:100260002100404200F020F8002010BD1023064A73
:1002700010B5116800200B431360FFF7E5FF01F094
:10028000DDF9002010BDC04600200240024A13687C
:10029000013313607047C04620000020014B1868EE
:1002A0007047C0462000002070B58901002814DA8C
:1002B0000F23C0B20340083B114A9B089B009B18C8
:1002C000032210409040FC321500114085408140CF
:1002D000DC69AC432143D96170BD03258308284004
:1002E000A840FC352E00074A9B009B18C022864080
:1002F0002940814092009C58B44321439950EBE738
:1003000000ED00E000E100E0094A431E01209342B5
:100310000DD8C021074A08485360036A09061B022A
:100320001B0A0B4303620020072390601360704791
:10033000FFFFFF0010E000E000ED00E0F0B5564ADE
:100340000B688218541EA24189B003930023043223
:100350000592039ADA4001D109B0F0BD01229A401A
:1003600094466446039A2240029200D192E04A6881
:1003700001921022019E9643022E0DD107240F27D1
:100380001C40A400A740DA0892008218156ABD43F9
:100390000F69A7403D431562032214005D00AC4085
:1003A000E4430768013E27400497019F3A40AA4072
:1003B000049F3A430260012E0ED8CA688668AA409C
:1003C000264032438260624646689643019AD206CE
:1003D000D20F9A4032434260C26814408A68AA40F1
:1003E0001443019AC460D20054D501262B4A1D0043
:1003F00094693443946192699C0832400792079A49
:10040000274AA400A418A268944603221540AD0010
:100410000C32AA40674697439022D20594460022A8
:1004200060450DD01F4A94463200604508D01E4EEC
:100430009218B04204D01D4E0132B04200D0059A4D
:10044000AA403A43A2601A4A029C1668029D019F84
:10045000E4433543FF0301D4350025401560566859
:10046000029D019F3543BF0301D4350025405560EF
:100470009668029D019F3543FF0201D43500254057
:100480009560D568029E019F2E43BF0201D425408E
:100490002E00D66001335CE700F0FFB70010024089
:1004A000000001400004004800080048000C00481B
:1004B00000040140002A01D0816170478162FCE79D
:1004C00003689A69920701D500229A62012299690C
:1004D000114202D199690A439A61704730B50468A4
:1004E0000648656889052840039D890D2B431943FB
:1004F00012040A430243626030BDC046009800FC0B
:10050000F8B504000E0017001D00226893693340FF
:100510009B1B59424B41BB4201D000200EE06B1C9B
:10052000F4D0002D0BD12300202241331A70220079
:10053000002303204232403413702370F8BDFFF7CC
:10054000ADFE069BC01A8542DFD2ECE7F8B5036822
:100550000400986910230E00170018402025002879
:1005600015D1F8BD721C13D0002E0BD12300202210
:1005700041331A70220000234232403413700320AA
:100580002370EEE7FFF78AFEC01B8642EED3236896
:100590009A692A42E6D010222000DA61DD61FFF775
:1005A0008FFF22680849536801200B4053600423E1
:1005B00063642300220041331D7000234232403423
:1005C00013702370CDE7C04600E800FEF8B50400C4
:1005D0000D001600022723689B693B4201D00020D2
:1005E00018E0320029002000FFF7B0FF002818D1E2
:1005F0006B1CF0D0002D0ED12022636C032013431E
:100600006364230041331A702200002342324034D5
:1006100013702370F8BDFFF741FE801B8542DAD2CC
:10062000EAE70120F6E7F8B504000D0016002027E0
:1006300023689B693B4201D0002016E0320029006C
:100640002000FFF783FF002816D1002D0ED12022B5
:10065000636C032013436364230041331A70220048
:1006600000234232403413702370F8BDFFF716FEAA
:10067000801B8542DCD2EAE70120F6E770B5040072
:100680000120002C3FD0250041352B78DBB2002B18
:1006900005D1220040321370200000F0E7FF242330
:1006A00001212B702368E0681A68A6688A431A60E3
:1006B00061681A4A0A401A619968194A114099609A
:1006C000012821D1802109023143996058681549D8
:1006D00001435960D96800200A40DA6061692269E3
:1006E0000A43A16909020A43DA60216AE2690A43FE
:1006F0001A60012219680A431A60202360642B7073
:1007000020634234207070BD842109023143996016
:100710000228DBD1802109015960D7E7FFFFFFF0F4
:10072000FF7FFFFF00800002F0B5050087B0039156
:100730000492059341352B7804000220202B57D1D9
:10074000230040331A78012A52D001261E70FFF789
:10075000A5FD802107000090192332000902200026
:10076000FFF7CEFE002842D121232B70113BAD199B
:100770002B70049B606463626B469B8A6063638535
:100780008023628D9B01FF2A21D9FF2222850093BD
:1007900080235B0403992000FFF7A0FEFF26638DF2
:1007A0003A000C992000002B19D1FFF73CFF0028DC
:1007B00019D120212368274ED9615A6832405A60E6
:1007C00023004034413319702870207010E0628D8E
:1007D00092B2228500938023D2B29B04DAE7FFF71E
:1007E000F5FE002806D0636C0120042B00D0032006
:1007F00007B0F0BD636A2268591C61621B7893627E
:10080000638D228D013B013A9BB292B263852285B2
:10081000002AC4D1638D002BC1D000970C9B80218E
:100820002000FFF76DFE0028E1D1638DFF2B09D971
:100830008023FF2226855B04009003992000FFF7A8
:100840004DFEACE78023628D9B0492B22285D2B22A
:100850000090F2E700E800FEF0B504004134227891
:100860000300D2B20220202A18D11D0040352E7874
:10087000012E13D01B68223020701E682338864357
:100880001E601E68064F3E401E601E6831431960A0
:10089000196808431860002022702870F0BDC04617
:1008A000FFEFFFFFF0B5050041352A780300D2B213
:1008B0000220202A17D11C0040342678012E12D0A5
:1008C0001B68223028701E68233886431E601E680D
:1008D000054F09023E40314319601968084318600A
:1008E00000202A702070F0BDFFF0FFFFF0B5036814
:1008F00085B00500DB0733D42B689B0700D58AE061
:100900002B681B0700D5CAE02B685B0700D5EDE01C
:100910002B68DB061AD56A69BC4C0423012A00D077
:1009200059E1616B02260B436363636B1A43626395
:10093000FFF7B4FC0700636B334200D144E1F821B8
:10094000626BAB698A43DB00134363632B689B06CE
:1009500000D567E1696A002900D0A4E1002018E011
:100960000C21AA4C62680A40042A0BD063680B4031
:10097000082B10D1C0226368520213408022520219
:10098000934208D123689B03B6D56B68002BB3D183
:10099000012005B0F0BD6B68012B13D180232268C4
:1009A0005B0213432360FFF779FC80260700B60241
:1009B00023683342A0D1FFF771FCC01B6428F7D92C
:1009C0000320E6E7002B16D12368914A80261340C6
:1009D000236023688F4AB60213402360FFF75EFC52
:1009E00007002368334200D186E7FFF757FCC01B9E
:1009F0006428F6D9E4E7052B05D180232268DB02C1
:100A000013432360CAE72368814A134023602368A5
:100A1000804A1340C6E70C227C4C636813420BD01B
:100A200063681340082B15D1C0226368520213403B
:100A30008022120293420DD123689B0702D5EB68F6
:100A4000012BA5D1F82122682B698A43DB001343CF
:100A5000236055E7EA680123002A0FD022680226A6
:100A600013432360FFF71AFC070023683342E9D1E0
:100A7000FFF714FCC01B0228F7D9A1E72268022661
:100A80009A432260FFF70AFC07002368334200D133
:100A900036E7FFF703FCC01B0228F6D990E7EA69A6
:100AA00001235A4C002A10D0626A02261343636263
:100AB000FFF7F4FB0700636A334200D024E7FFF737
:100AC000EDFBC01B0228F6D97AE7626A02269A4338
:100AD0006262FFF7E3FB0700636A334200D113E76A
:100AE000FFF7DCFBC01B0228F6D969E78022002152
:100AF000464C5205E3690091134208D1E369134360
:100B0000E361E36913400393039B01230093802770
:100B1000414E7F0033683B4206D0AB68012B13D1B6
:100B2000226A1343236230E033683B433360FFF7AC
:100B3000B5FB019033683B42EFD1FFF7AFFB019B60
:100B4000C01A6428F6D93BE70122002B14D1236A8E
:100B5000022793432362236A033293432362FFF7FE
:100B60009DFB0600236A3B4225D0FFF797FB2B4BEA
:100B7000801B9842F6D923E7052B0BD1216A013B54
:100B80000B432362236A1A432262FFF787FB022783
:100B900006000DE0236A934304222362236A9343F1
:100BA000C0E7FFF77BFB1D4B801B984200D907E78E
:100BB000236A3B42F5D0009B012B00D0A8E6E369F5
:100BC000174A1340E361A3E6FFF768FBC01B022846
:100BD00000D8B0E6F4E6053203D1626B9A43626353
:100BE000ADE6626B0226134301226363636B93439A
:100BF0006363FFF753FB0700636B334200D1A5E645
:100C0000FFF74CFBC01B0228F6D9D9E600100240C2
:100C1000FFFFFEFFFFFFFBFF007000408813000096
:100C2000FFFFFFEF0C21464C62680A408A4209D060
:100C300063680B40082B0ED1C02263685202134038
:100C4000934208D1636BDB0300D483E62B6A012B4C
:100C500000D09DE67EE62B6A002B11D08026636BC8
:100C6000760233436363FFF719FB0700636B33427C
:100C700000D06FE6FFF712FBC01B0228F6D99FE6F3
:100C8000636B304A802613406363FFF707FB07005E
:100C90007602636B334200D15CE6FFF7FFFAC01BBC
:100CA0000228F6D98CE60C22254C63681340082BE9
:100CB00000D16DE62368244A1340236002292FD116
:100CC000FFF7ECFA80260700B6042368334221D1EF
:100CD0000F22E36A93432A6B1343E362A96AEB6A28
:100CE00062680B43194980250A40134363608023DF
:100CF00022685B0413432360FFF7D0FA0600AD04BB
:100D000023682B4200D029E6FFF7C8FA801B02288F
:100D1000F6D955E6FFF7C2FAC01B0228D5D94FE62F
:100D2000FFF7BCFA80250600AD0423682B4200D1F2
:100D300014E6FFF7B3FA801B0228F6D940E6C04656
:100D400000100240FFFFFEFFFFFFFFFEFF7FC2FF1C
:100D500070B5194C88B010222100684600F070FD73
:100D6000210004AD10221031280000F069FD0C2292
:100D7000124E73681A40082A04D00C2A1AD110485F
:100D800008B070BD0F206A46990C0140545CF26AAD
:100D90000240A95CC02280205202134040028342DC
:100DA00001D1084802E09342FBD10548FFF7C0F9A2
:100DB0006043E5E70348E3E77C18000800100240C1
:100DC000006CDC0200127A00F7B501224F4C0600DD
:100DD0002368019113408B421FD33268930728D4B4
:100DE000D3072ED40123226801991A40914200D2E0
:100DF0007EE03368464C5B0700D580E0FFF7A8FF34
:100E00006368444A1B061B0FD35CD840424B1860F2
:100E10000020FFF719FA00200AE0236801999343A4
:100E20000B43236023681340019A9A42D5D00120D6
:100E3000FEBDF02036494B688343B06803434B60E6
:100E4000CEE77268324D012A1AD12B689B03EED58A
:100E500003216B688B4313436B60FFF71FFA7368C2
:100E60000700012B1CD10C226B681340042BB9D056
:100E7000FFF714FA294BC01B9842F4D90320D7E797
:100E8000022A03D12B689B01E2D4D0E7032A03D1C5
:100E90006B6BDB03DCD4CAE72B689B07D8D4C6E7AF
:100EA000022B0BD10C226B681340082B9AD0FFF752
:100EB000F5F91A4BC01B9842F4D9DFE7032B11D088
:100EC0000C226B68134200D18CE7FFF7E7F9134B54
:100ED000C01B9842F4D9D1E7FFF7E0F90F4BC01BD4
:100EE0009842CBD80C226B6813409342F4D179E737
:100EF00022689A43226022681A4298D179E763688F
:100F0000074A1340F2681343636077E7002002400A
:100F100000100240AD1800080000002088130000F7
:100F2000FFF8FFFF014B18687047C0460000002023
:100F3000044B054A5B685B055B0FD35C034A106892
:100F4000D840704700100240BD1800080000002083
:100F5000F0B5036885B00500DB0328D580220021A9
:100F6000444C5205E3690091134208D1E3691343ED
:100F7000E361E36913400393039B012300938027FC
:100F80003D4E7F0033683B4241D0C022236A92002D
:100F900013403A4E4DD1236A1E406B681E43009B9E
:100FA0002662012B03D1E369354A1340E3612B68C4
:100FB000DA0706D503202F490A6B8243A86802434B
:100FC0000A639A0706D52B492E480A6B0240E86847
:100FD00002430A639A0606D5102026490A6B82430B
:100FE000286902430A639A0306D5802021490A6BC7
:100FF0008243A86902430A6300205B0517D540219C
:101000001C4A136B8B4369690B4313630FE033680E
:101010003B433360FFF742F9019033683B42B4D160
:10102000FFF73CF9019BC01A6428F6D9032005B0EC
:10103000F0BD69680A409342ADD08023226A206ADD
:1010400011005B0203432362236A0F4831400340CF
:1010500023622162D3079ED5FFF720F90700022201
:10106000236A134297D1FFF719F9084BC01B984226
:10107000F5D9DBE70010024000700040FFFCFFFFE5
:10108000FFFFFFEFFFFFFCFFFFFFFEFF88130000E5
:1010900070B504000568C269836800692968034364
:1010A000606903434A48134301400B432B606B685C
:1010B0004849206A0B40E1680B436B60A369A9684B
:1010C0000343454801400B438021AB60434B090279
:1010D0009D4210D10320424B1B6B03404148C05C32
:1010E0008A4246D0082819D8FFF718F84F18541824
:1010F0005E18181861003C4B9D422CD1C020802600
:10110000374B80021B6B76020340B34254D007D8A2
:10111000002B26D080231B029A4233D0012019E0F5
:101120008026B602B3424CD08342F3D18A4231D1F9
:10113000636858082D4BC0186168FEF7F9FF83B249
:1011400000200F22190091430A001B0721685B0F42
:101150001343CB6070BD264B9D4202D0254B9D4270
:10116000D8D18A4211D1FFF7E3FE636840005B08E3
:10117000E1E7082806D8FEF7C7FFF605DB052105DD
:101180000505260001200023DBE7FFF7D1FE61689B
:101190004B0802E06168184B4808C018FEF7C8FF0A
:1011A00080B2E8600020D5E7FFF7D2FDEFE78023AB
:1011B00061681B024808F0E78A42F5D1FFF7C8FDD5
:1011C000D3E78A42F3D16368580880235B02B2E711
:1011D000F369FFEFFFCFFFFFFFF4FFFF003801408F
:1011E000001002409C180008004400400024F40055
:1011F00000480040004C004000127A00436A30B5BD
:10120000DA0706D50168284C4A682240846A2243DE
:101210004A609A0706D50168244C4A682240C46A8D
:1012200022434A605A0706D50168214C4A68224089
:10123000046B22434A601A0706D501681D4C4A68B0
:101240002240446B22434A60DA0606D501681A4CF4
:101250008A682240846B22438A609A0606D5016818
:10126000164C8A682240C46B22438A605A0610D505
:101270000168134D4A68046C2A4022434A60802268
:101280005203944205D14A680E4C2240446C2243DA
:101290004A601B0606D502680B4953680B40816CF7
:1012A0000B43536030BDC046FFFFFDFFFFFFFEFF55
:1012B000FFFFFBFFFF7FFFFFFFEFFFFFFFDFFFFFF2
:1012C000FFFFEFFFFFFF9FFFFFFFF7FFF8B50400F1
:1012D0000E0015001F002268D36933409B1B594242
:1012E0004B41AB4201D0002018E0069B0133F3D004
:1012F000069B002B13D123680C491A6803200A406F
:101300001A609A68A331FF318A439A602200202331
:10131000693213705370002368342370F8BDFEF7F0
:10132000BDFF069BC01B8342D5D2E4E75FFEFFFFF3
:10133000002337B50400C366FEF7B0FF2368184AE0
:10134000050093420BD0174A934208D02200202375
:101350000020693268341370537020703EBD1B68E2
:101360001B070FD423681B685B07EFD580210E4B4A
:1013700000220093C9032B002000FFF7A7FF0028DD
:101380000BD1E3E78021084B0022009389032B0057
:101390002000FFF79BFF0028E4D00320DEE7C046D3
:1013A0000038014000440040FFFFFF0170B5041EFB
:1013B00001D1012070BD050069352B78DBB2002B0F
:1013C00004D102006832137000F086F92423012151
:1013D00022682B70136820008B431360FFF758FEC0
:1013E0000128E6D0636A002B02D02000FFF706FF39
:1013F000236808495A6820000A402A215A609A68DE
:101400008A439A60012219680A431A60FFF790FF25
:10141000D0E7C046FFB7FFFF1FB50F230100994378
:101420000B3B1C0003AA51700C4319000001C0B211
:10143000014391706421D0701470034800911639F3
:10144000FFF772F91FBDC046240000201FB50F230F
:10145000040005219C430B0003AA234313700123BE
:101460000001C0B21C430143184363339170D07034
:1014700054704E2100930248603BFFF755F91FBDA1
:101480002400002010B50220FFF7C6FF2820FFF738
:10149000C3FF0C20FFF7C0FF8020FFF7BDFF022035
:1014A000FFF7BAFF10BD10B504002078002800D166
:1014B00010BD0134FFF7CAFFF7E770B5102698B0EA
:1014C000342200210BA800F0C4F932000021684644
:1014D00000F0BFF91C22002104A800F0BAF9802313
:1014E0001B021593A023022401259B030BA80B9438
:1014F000149416930E950F961795FFF7F7F9072397
:101500000194002429006846009302940394FFF795
:101510005BFC222304A8049307940894FFF718FDAA
:1015200018B070BD70B58AB0FEF7A0FEFFF7C5FF1A
:101530001422002105A800F08CF98020364B00030E
:1015400059690024014359615A69012602408020EB
:101550000192019A5969C003014359615A690240D5
:1015600080200292029A59698002014359618021C8
:101570005A69C902024090200392039A5A69C00531
:101580000A435A615B6900220B4004932021049BAB
:10159000FEF790FF80239B010593204B05A920486F
:1015A00006930794FEF7CAFE9020202305A9C005E4
:1015B0000593069607940894FEF7C0FE19481A4B47
:1015C0008460036096231B0243600C23C460436164
:1015D00004618461C46104624462FFF7E7FE134D55
:1015E000134B28002B60134BAC606B60EE602C61DA
:1015F0006C61AC61EC612C62FFF740F821002800BF
:10160000FFF72AF921002800FFF74CF9FFF73AFF0E
:101610000948FFF748FFFEE70010024000002110D4
:101620000008004870000020004400402400002012
:10163000005400400E090020A018000801200A4BA9
:1016400082B099690143996180219A6949050240F4
:101650000092009ADA690A43DA61DB690B40019370
:10166000019B02B07047C0460010024010B5040054
:1016700088B01422002103A800F0EBF8134B226875
:101680009A4220D18021124CC902626911480A4352
:101690006261636903220B400193019BC0239B009D
:1016A0000393122303A90493113B05930692079316
:1016B000FEF744FE8021E26989030A43E261E3699F
:1016C0000B400293029B08B010BDC046005400407E
:1016D000001002400004004810B5040088B0142235
:1016E000002103A800F0B5F8104B22689A421BD1E4
:1016F00080220F4B9202D96990201143D961D96998
:10170000C0051140019101995969114359615B6903
:1017100003A91A400292029B0C2303930A3B0493F1
:10172000013B0793FEF70AFE08B010BD00440040DD
:10173000001002407047FEE77047704710B5FEF793
:10174000A5FD10BD0121114B11481A680A431A600A
:101750005A6802405A601A680E4802401A601A68B5
:101760000D4802401A605A680C4802400F205A6027
:10177000DA6A8243DA621A6B094802401A635A6BCA
:101780008A435A6300229A607047C04600100240A4
:101790000CB8FF08FFFFF6FEFFFFFBFFFFFFC0FFD7
:1017A0002CFEFCFF0D4885460D480E490E4A0023CD
:1017B00002E0D458C4500433C4188C42F9D30B4A05
:1017C0000B4C002301E013600432A242FBD3FFF76D
:1017D000B9FF00F011F8FFF7A5FEFEE7004000207A
:1017E0000000002004000020D018000804000020A1
:1017F000E0000020FEE7000070B500260C4D0D4C07
:10180000641BA410A64209D1002600F02BF80A4D53
:101810000A4C641BA410A64205D170BDB300EB585E
:1018200098470136EEE7B300EB5898470136F2E7E8
:10183000C8180008C8180008C8180008CC18000804
:10184000002310B59A4200D110BDCC5CC4540133C2
:10185000F8E703008218934200D1704719700133F2
:10186000F9E70000F8B5C046F8BC08BC9E467047D2
:0C187000F8B5C046F8BC08BC9E467047A6
:10187C0002030405060708090A0B0C0D0E0F1010C5
:10188C000102030405060708090A0B0C0D0E0F10C4
:10189C000004080248656C6C6F20576F726C6421F1
:1018AC00000000000000000000010203040607080D
:0C18BC000900000000010203040000000D
:0418C800E90000082B
:0418CC00C10000084F
:0418D00000127A0088
:04000005080017A533
:00000001FF
